:100000000C9460000C9488000C9488000C94880078
:100010000C9488000C9488000C9488000C94700256
:100020000C9488000C9488000C9488000C94200791
:100030000C9488000C9488000C9488000C94880020
:100040000C94DD020C9488000C947C010C94AE019D
:100050000C9488000C9488000C9488000C94880000
:100060000C9418090C94880002000000080002019A
:10007000000003040700000000000000000102046B
:10008000081020408001020408102001020408101A
:100090002004040404040404040202020202020311
:1000A000030303030300000000250028002B0000C9
:1000B000000000240027002A0000DE014A05610834
:1000C00011241FBECFEFD8E0DEBFCDBF11E0A0E00E
:1000D000B1E0E6E8F4E102C005900D92A632B10766
:1000E000D9F723E0A6E2B1E001C01D92A039B20722
:1000F000E1F710E0C0E6D0E004C02197FE010E94C5
:100100003B0ACD35D107C9F70E94CE020C94380ABC
:100110000C94000061E08DE00C94E90361E08DE057
:100120000E94250464EF71E080E090E00E944C039F
:1001300060E08DE00E94250464EF71E080E090E0D3
:100140000C944C03FC01918D228D892F90E0805CF2
:100150009F4F821B91098F7399270895FC01918D00
:10016000828D981731F0828DE80FF11D858D90E01A
:1001700008958FEF9FEF0895FC01918D828D981760
:1001800061F0A28DAE0FBF2FB11D5D968C91928D47
:100190009F5F9F73928F90E008958FEF9FEF089578
:1001A000FC01538D448D252F30E0842F90E0821B7D
:1001B000930B541710F0CF9608950197089584ED8E
:1001C00091E0892B49F080E090E0892B29F00E9492
:1001D000D40181110C9400000895FC01A48DA80F96
:1001E000B92FB11DA35ABF4F2C91848D90E0019679
:1001F0008F739927848FA689B7892C93A089B18999
:100200008C91837080648C93938D848D981306C039
:100210000288F389E02D80818F7D80830895CF93BC
:10022000DF93EC01888D8823B9F0AA89BB89E8891E
:10023000F9898C9185FD03C0808186FD0DC00FB6C4
:1002400007FCF7CF8C9185FFF2CF808185FFEDCF42
:10025000CE010E94ED00E9CFDF91CF910895EF929A
:10026000FF920F931F93CF93DF93EC0181E0888F70
:100270009B8D8C8D98131AC0E889F989808185FF40
:1002800015C09FB7F894EE89FF896083E889F989E2
:1002900080818370806480839FBF81E090E0DF91E4
:1002A000CF911F910F91FF90EF900895F62E0B8D37
:1002B00010E00F5F1F4F0F731127E02E8C8D8E11F2
:1002C0000CC00FB607FCFACFE889F989808185FF59
:1002D000F5CFCE010E94ED00F1CFEB8DEC0FFD2F9D
:1002E000F11DE35AFF4FF0829FB7F8940B8FEA8914
:1002F000FB8980818062CFCF1F920F920FB60F9241
:1003000011242F938F939F93EF93FF93E0913601E6
:10031000F09137018081E0913C01F0913D0182FD37
:100320001BC0908180913F018F5F8F7320914001AE
:10033000821741F0E0913F01F0E0EA5DFE4F958FBA
:1003400080933F01FF91EF919F918F912F910F909B
:100350000FBE0F901F9018958081F4CF1F920F92BF
:100360000FB60F9211242F933F934F935F936F9388
:100370007F938F939F93AF93BF93EF93FF9386E207
:1003800091E00E94ED00FF91EF91BF91AF919F919D
:100390008F917F916F915F914F913F912F910F902E
:1003A0000FBE0F901F90189586E291E00E94A20068
:1003B00021E0892B09F420E0822F0895E6E2F1E0A4
:1003C0001382128288EE93E0A0E0B0E084839583EC
:1003D000A683B78385E091E09183808385EC90E0EC
:1003E0009587848784EC90E09787868780EC90E0FF
:1003F000918B808B81EC90E0938B828B82EC90E0F0
:10040000958B848B86EC90E0978B868B118E128E69
:10041000138E148E089590E080E00895AF92BF92FD
:10042000CF92DF92EF92FF920F931F93CF93DF93C0
:100430006C017B018B01040F151FEB015E01AE18EF
:10044000BF08C017D10759F06991D601ED91FC9111
:100450000190F081E02DC6010995892B79F7C5013E
:10046000DF91CF911F910F91FF90EF90DF90CF9090
:10047000BF90AF900895813039F018F0823051F07C
:10048000089510926E00089580916F008D7F809383
:100490006F000895809170008D7F8093700081E0DF
:1004A0008093B0008091B100887F84608093B10018
:1004B0001092B3000895CF93C82F80910001C81304
:1004C0000DC0E8E6F0E084919FEF909300010E9458
:1004D0003B0260E08C2FCF910C9425048FEFF7CF77
:1004E0001F920F920FB60F9211242F933F934F93A9
:1004F0005F936F937F938F939F93AF93BF93EF938C
:10050000FF938091C6019091C701A091C801B0915D
:10051000C901892B8A2B8B2BD1F19091C301E091DA
:10052000C401F091C5018081892780838091C60133
:100530009091C701A091C801B091C9011816190680
:100540001A061B069CF48091C6019091C701A091E8
:10055000C801B091C9010197A109B1098093C601F1
:100560009093C701A093C801B093C901FF91EF9187
:10057000BF91AF919F918F917F916F915F914F91BB
:100580003F912F910F900FBE0F901F901895809163
:1005900000010E945B02EACF089508950E9485033E
:1005A0000E94CD020E948A00CFEDD0E00E948E0012
:1005B0002097E1F30E94DF00F9CF1F920F920FB650
:1005C0000F9211242F933F938F939F93AF93BF93D9
:1005D0008091CB019091CC01A091CD01B091CE0141
:1005E0003091CA0123E0230F2D3758F50196A11D44
:1005F000B11D2093CA018093CB019093CC01A093AD
:10060000CD01B093CE018091CF019091D001A09106
:10061000D101B091D2010196A11DB11D8093CF01EE
:100620009093D001A093D101B093D201BF91AF912B
:100630009F918F913F912F910F900FBE0F901F9020
:10064000189526E8230F0296A11DB11DD2CF3FB702
:10065000F8948091CF019091D001A091D101B091F7
:10066000D20126B5A89B05C02F3F19F00196A11D08
:10067000B11D3FBFBA2FA92F982F8827BC01CD01EC
:10068000620F711D811D911D42E0660F771F881F4B
:10069000991F4A95D1F708958F929F92AF92BF927A
:1006A000CF92DF92EF92FF926B017C010E942703B1
:1006B0004B015C01C114D104E104F104E9F00E9492
:1006C000CC020E942703681979098A099B09683EB0
:1006D00073408105910570F321E0C21AD108E10849
:1006E000F10888EE880E83E0981EA11CB11CC1148D
:1006F000D104E104F10429F7FF90EF90DF90CF904F
:10070000BF90AF909F908F900895789484B5826049
:1007100084BD84B5816084BD85B5826085BD85B5A5
:10072000816085BDEEE6F0E0808181608083E1E854
:10073000F0E010828081826080838081816080838C
:10074000E0E8F0E0808181608083E1EBF0E080818F
:1007500084608083E0EBF0E0808181608083EAE761
:10076000F0E08081846080838081826080838081EA
:10077000816080838081806880831092C1000895A9
:10078000833081F028F4813099F08230A9F0089507
:100790008730A9F08830C9F08430B1F480918000AE
:1007A0008F7D03C0809180008F77809380000895B3
:1007B00084B58F7784BD089584B58F7DFBCF8091FC
:1007C000B0008F778093B00008958091B0008F7D46
:1007D000F9CFCF93DF9390E0FC01E358FF4F2491D2
:1007E0008F569F4FFC0184918823C9F090E0880FB9
:1007F000991FFC01E155FF4FA591B491FC01EB5508
:10080000FF4FC591D49161110DC09FB7F8948C91A1
:10081000209582238C938881282328839FBFDF9192
:10082000CF910895623051F49FB7F8943C91822F94
:10083000809583238C93E8812E2BEFCF8FB7F8948C
:10084000EC912E2B2C938FBFEACF1F93CF93DF9386
:10085000282F30E0F901E759FF4F8491F901E3585F
:10086000FF4FD491F901EF56FF4FC491CC23A9F06B
:10087000162F81110E94C003EC2FF0E0EE0FFF1F36
:10088000EB55FF4FA591B4918FB7F894EC911111EE
:1008900008C0D095DE23DC938FBFDF91CF911F91ED
:1008A0000895DE2BF8CF862FE091E301F091E4016B
:1008B000309711F0BA0109940895862FE091E10173
:1008C000F091E201309711F0BA0109940895862F52
:1008D000E091DF01F091E001309711F0BA01099445
:1008E0000895862FE091DD01F091DE01309711F03F
:1008F000BA0109940895862FE091DB01F091DC01A3
:10090000309711F0BA0109940895862FE091D9012A
:10091000F091DA01309711F0BA0109940895CB01F2
:10092000E091D701F091D801309709F0099408952A
:10093000862F642FE091D501F091D601309711F008
:10094000A90109940895E091D301F091D401309761
:1009500009F0099408950F931F93CF93DF938C01AF
:10096000805C9F4F0E94EE05E801CE5BDF4F40E4C4
:1009700050E0B801CE010E948B06F801E058FF4F0D
:100980001082319611821082FE96108230E020E0B3
:1009900043E554E060EECE010E94CD0630E020E059
:1009A0004DE554E060E9CE010E94CD0630E020E044
:1009B0004BE754E060ECCE010E94CD0630E020E031
:1009C00045E854E060EDCE010E94CD0630E020E025
:1009D00047E654E064EFCE010E94CD0630E020E00F
:1009E00041E754E065EFCE010E94CD0630E020E003
:1009F0004FE854E061E7CE010E94120730E020E0AA
:100A000048E954E060EFCE010E941A07980145E4DE
:100A100055E069E7CE010E94FA06980146E255E0EA
:100A200069EFCE010E94020730E020E043EA54E083
:100A30006FEFCE01DF91CF911F910F910C940207C0
:100A400045E062E0805C9F4F0C945906009711F0DE
:100A50000C94200508950F931F93FC01E058FF4F5D
:100A60002081222379F031960190F081E02D8F01D1
:100A70000E5F1F4F2250330B41816081805C9F4F7E
:100A80000E94F2051F910F910895009711F00C94A8
:100A90002B05089585EE91E00C94AB045F926F9264
:100AA0007F928F929F92AF92BF92CF92DF92EF92FE
:100AB000FF920F931F93CF93DF935C016901DA01DB
:100AC0005C90232B19F4CC24CA94DC2C8A013A01C3
:100AD000660E771ED0E0C0E0F12CE12C87E0882E76
:100AE000912C6016710609F443C0EC14FD0408F063
:100AF00065C0F80161918F01D5018D919C910C2EFB
:100B000001C0660F0A94EAF765296F77DC01ED9161
:100B1000FC910190F081E02D0995BFEFEB1AFB0AE3
:100B2000F8013197608170E0C4018C1B9D0B02C0FD
:100B3000759567958A95E2F7562E2196C730D105AF
:100B400080F2CE14DF0469F2F50180819181652D78
:100B50006F77DC01ED91FC910190F081E02D09951A
:100B6000BFEFEB1AFB0A551C5524551C2797E6CFFF
:100B7000209721F1EC14FD0408F5F50180819181A5
:100B800061E070E001C0660FCA95EAF76150652127
:100B9000DC01ED91FC910190F081E02DDF91CF918E
:100BA0001F910F91FF90EF90DF90CF90BF90AF908B
:100BB0009F908F907F906F905F900994DF91CF917D
:100BC0001F910F91FF90EF90DF90CF90BF90AF906B
:100BD0009F908F907F906F905F900895FC0111829D
:100BE00010820895CF92DF92EF92FF920F931F939E
:100BF000CF93DF93FC01A081B181109709F450C01D
:100C000068018901F42EE62EEC01ED91FC9111971B
:100C10000190F081E02D60EFCD01099588819981E7
:100C2000DC01ED91FC910190F081E02D69E70995DF
:100C300088819981DC01ED91FC910190F081E02D9A
:100C40006E2D099588819981DC01ED91FC910190CF
:100C5000F081E02D6F2D099576010C0D1D1DE0161C
:100C6000F10661F030E020E0A70161E070E0CE0124
:100C70000E944E05BFEFEB1AFB0AF1CF88819981E4
:100C8000DC01ED91FC910190F081E02D67EFDF91A7
:100C9000CF911F910F91FF90EF90DF90CF9009942B
:100CA000DF91CF911F910F91FF90EF90DF90CF9048
:100CB00008950F931F93CF93DF93FC01A081B1811F
:100CC000109721F1042F162FEC01ED91FC91119753
:100CD0000190F081E02D69EFCD010995888199811E
:100CE000DC01ED91FC910190F081E02D612F0995DF
:100CF00088819981DC01ED91FC910190F081E02DDA
:100D0000602FDF91CF911F910F910994DF91CF91C7
:100D10001F910F910895FC01728361835483438373
:100D20001582168210861782118613861286158602
:100D3000148617861686118A108A138A128A158AD3
:100D4000148A178A168A118E108E138E128E158EA3
:100D5000148E178E168E11A210A213A212A215A223
:100D600014A217A216A211A610A613A612A615A6C3
:100D700014A617A616A611AA10AA13AA12AA15AA93
:100D800014AA17AA16AA11AE10AE13AE12AE81E0C5
:100D9000672B09F080E080830895FC01603DD9F065
:100DA00028F4603971F0603C89F00895643FC1F027
:100DB000653FD9F0603EE9F455A344A33587248705
:100DC000089557A346A337872687089551A740A7BC
:100DD000318B208B089553A742A7338B228B089524
:100DE00055A744A7358B248B089557A746A7378B63
:100DF000268B0895693729F4FC0157AB46AB318F38
:100E0000208F0895FC01693F19F06F3F31F008957C
:100E100051AF40AF338F228F089553AF42AF33A30A
:100E200022A30895613729F4FC0153AB42AB378FFD
:100E3000268F0895FC0155AB44AB31A320A3089540
:100E40001F920F920FB60F9211242F933F934F933F
:100E50005F936F937F938F939F93AF93BF93EF9322
:100E6000FF938091A60287FF27C010928500109201
:100E700084008091A6028F5F8093A6028091A602D3
:100E8000082E000C990B2091A5022817190629F0AD
:100E900024F08091A6028C30DCF180918400909146
:100EA0008500049680349C4908F47BC080918400BE
:100EB00090918500049677C08091A602082E000CC0
:100EC000990B2091A5022817190699F294F2E09146
:100ED000A6028E2FEE0F990BFC01EE0FFF1FE80FFD
:100EE000F91FE955FD4F808186FFC3CFE091A6022F
:100EF0008E2FEE0F990BFC01EE0FFF1FE80FF91F6D
:100F0000E955FD4F808160E08F730E942504B1CFC9
:100F10002091840030918500E091A6028E2FEE0F83
:100F2000990BFC01EE0FFF1FE80FF91FE955FD4F6C
:100F300081819281820F931F909389008093880012
:100F4000E091A6028E2FEE0F990BFC01EE0FFF1F12
:100F5000E80FF91FE955FD4F808186FF11C0E09130
:100F6000A6028E2FEE0F990BFC01EE0FFF1FE80F6C
:100F7000F91FE955FD4F808161E08F730E942504C0
:100F8000FF91EF91BF91AF919F918F917F916F9161
:100F90005F914F913F912F910F900FBE0F901F9037
:100FA000189580E49CE990938900809388008FEFE6
:100FB0008093A602E5CF8091FA029091FB02891BF3
:100FC000990B08959091FB028091FA022FEF3FEF69
:100FD000981748F4E92FF0E0E450FD4F208130E00D
:100FE0009F5F9093FB02C9010895E091FB028091FD
:100FF000FA02E81730F4F0E0E450FD4F808190E011
:1010000008958FEF9FEF08950895CF93DF931F9278
:10101000CDB7DEB769832091D7022223F9F0209162
:10102000D802203258F021E030E0FC0133832283E3
:1010300090E080E00F90DF91CF9108958091D902E8
:10104000E82FF0E0E652FD4F998190838F5F809307
:10105000D9028093D80281E090E0ECCF61E0CE012C
:1010600001960E949D08F7CFCF92DF92EF92FF92F8
:101070000F931F93CF93DF937C01CB018A012091C3
:10108000D702222389F0EB016B01C40ED51ECC15CB
:10109000DD0569F06991D701ED91FC910190F08136
:1010A000E02DC7010995F3CF642F0E949D08C80168
:1010B000DF91CF911F910F91FF90EF90DF90CF9034
:1010C0000895EBECF2E01382128288EE93E0A0E048
:1010D000B0E084839583A683B78387E191E0918311
:1010E0008083089510928F0381E080938D03109286
:1010F0008C0361E082E10E94250461E083E10E94AB
:101100002504E9EBF0E080818E7F808380818D7FF4
:10111000808388E48093B80085E48093BC000895C0
:10112000ECEBF0E080818A7B808360E082E10E94CA
:10113000250460E083E10C94250420913E03260FF2
:101140003327331F21323105ECF420918F03FC014A
:1011500090E080E0243069F082E00895A0913E03A1
:101160002191AC01405C5C4FA40FB52FB11D2C93B5
:101170000196861798F380913E03680F60933E03B3
:1011800080E0089581E0089585EC8093BC00109282
:101190008F030895CF93DF9391E090938703882383
:1011A00061F0C091B800D091BA000E9490080E94EE
:1011B0007208D093BA00C093B800DF91CF91089520
:1011C00085ED8093BC008091880390918903A09164
:1011D0008A03B0918B030796A11DB11D23E0B6953C
:1011E000A795979587952A95D1F72091BC0024FD66
:1011F00003C010928F030895409188035091890392
:1012000060918A0370918B03452B462B472B69F322
:101210000097A105B10541F02AE22A95F1F700C037
:101220000197A109B109E1CF809186030C94CA0806
:101230001F920F920FB60F9211242F933F934F934B
:101240005F936F937F938F939F93AF93BF93EF932E
:10125000FF938091B900887F803609F44CC008F074
:101260003FC0883209F4A8C018F5803109F49CC049
:10127000B8F4882309F4F9C0883009F495C0FF91C7
:10128000EF91BF91AF919F918F917F916F915F91FE
:101290004F913F912F910F900FBE0F901F90189577
:1012A000883109F489C0803251F780931C0315C03E
:1012B000803409F49EC048F48033B9F38833F9F6DA
:1012C00080931C030E94C408DACF803509F485C0DE
:1012D000883509F496C0883491F60E94E008CFCF93
:1012E000883909F48CC038F5883729F050F48836ED
:1012F00011F0803721F683E080938F0310921D0355
:1013000057C0883809F47BC0803919F0803809F05B
:10131000B6CF80911D03803208F071C0E0911D03AB
:1013200081E08E0F80931D038091BB00F0E0E25EB0
:10133000FC4F80833DC0803B39F0E0F4803A09F4F3
:1013400079C0883A09F09BCF84E080938F03109294
:101350003F0310923E03E0918403F09185030995C9
:1013600080913E0381110FC081E080933E03109273
:10137000400309C0803C09F476C0883C09F473C07E
:10138000883B09F07CCFE0913F0381E08E0F809392
:101390003F03F0E0E05CFC4F80818093BB009091C4
:1013A0003F0380913E0329C080918E038093BB0050
:1013B00085EC8093BC0063CF9091610380916003C2
:1013C000981758F5E091610381E08E0F80936103D7
:1013D000F0E0EE59FC4F8081E9CFE091610381E0BC
:1013E0008E0F809361038091BB00F0E0EE59FC4FBB
:1013F000808390916103809160039817C8F285E81B
:10140000D8CFE091610381E08E0F809361038091DA
:10141000BB00F0E0EE59FC4F808380918D03811179
:101420005CCF81E080938C0384EA8093BC001092AF
:101430008F0325CF0E94C40880911D03803230F4B1
:10144000E0911D03F0E0E25EFC4F108260911D030D
:1014500070E0E0918203F09183038EE193E00995BF
:1014600010921D030CCF85ECE0CF10921C0335CFFA
:10147000F8940C94410AEE0FFF1F0590F491E02DB3
:061480000994F894FFCF6F
:10148600FF000000002F010E02D0000F01A200BCD9
:1014960000AE0000000000050834080B020408DB5B
:0614A60007E207F5070054
:00000001FF
