:100000000C9461000C9489000C9489000C94890074
:100010000C9489000C9489000C9489000C94810242
:100020000C9489000C9489000C9489000C9472073C
:100030000C9489000C9489000C9489000C9489001C
:100040000C942F030C9489000C948D010C94BF0127
:100050000C9489000C9489000C9489000C948900FC
:100060000C949C0A0C948900020000000800020114
:10007000000003040700000000000000000102046B
:10008000081020408001020408102001020408101A
:100090002004040404040404040202020202020311
:1000A000030303030300000000250028002B0000C9
:1000B000000000240027002A0000AF00EF019C058B
:1000C000E50911241FBECFEFD8E0DEBFCDBF11E0A0
:1000D000A0E0B1E0ECE7F8E102C005900D92A63295
:1000E000B107D9F723E0A6E2B1E001C01D92A33920
:1000F000B207E1F710E0C1E6D0E004C02197FE01AD
:100100000E94270CCD35D107C9F70E9420030C941B
:10011000BC0B0C94000069E070E086E291E00E9464
:10012000C70870E060E086E291E00C94040964EB9B
:1001300070E086E291E00E94040968EE73E080E0DE
:1001400090E00E949E0370E060E086E291E00E94F1
:10015000040968EE73E080E090E00C949E0386E270
:1001600091E00C942D08FC01918D228D892F90E057
:10017000805C9F4F821B91098F7399270895FC0122
:10018000918D828D981731F0828DE80FF11D858D4C
:1001900090E008958FEF9FEF0895FC01918D828D7F
:1001A000981761F0A28DAE0FBF2FB11D5D968C9197
:1001B000928D9F5F9F73928F90E008958FEF9FEFD6
:1001C0000895FC01538D448D252F30E0842F90E05D
:1001D000821B930B541710F0CF9608950197089542
:1001E00085EE91E0892B49F080E090E0892B29F0A1
:1001F0000E94E50181110C9400000895FC01A48D7A
:10020000A80FB92FB11DA35ABF4F2C91848D90E038
:1002100001968F739927848FA689B7892C93A0891B
:10022000B1898C91837080648C93938D848D9813A5
:1002300006C00288F389E02D80818F7D8083089538
:10024000CF93DF93EC01888D8823B9F0AA89BB890D
:10025000E889F9898C9185FD03C0808186FD0DC0F8
:100260000FB607FCF7CF8C9185FFF2CF808185FF19
:10027000EDCFCE010E94FE00E9CFDF91CF9108952E
:10028000EF92FF920F931F93CF93DF93EC0181E0E6
:10029000888F9B8D8C8D98131AC0E889F98980818D
:1002A00085FF15C09FB7F894EE89FF896083E889C0
:1002B000F98980818370806480839FBF81E090E0B2
:1002C000DF91CF911F910F91FF90EF900895F62E3F
:1002D0000B8D10E00F5F1F4F0F731127E02E8C8DD9
:1002E0008E110CC00FB607FCFACFE889F98980811E
:1002F00085FFF5CFCE010E94FE00F1CFEB8DEC0F14
:10030000FD2FF11DE35AFF4FF0829FB7F8940B8F3A
:10031000EA89FB8980818062CFCF1F920F920FB64E
:100320000F9211242F938F939F93EF93FF93E0915C
:100330003901F0913A018081E0913F01F091400153
:1003400082FD1BC09081809142018F5F8F7320914D
:100350004301821741F0E0914201F0E0E75DFE4F7A
:10036000958F80934201FF91EF919F918F912F91F3
:100370000F900FBE0F901F9018958081F4CF1F92A1
:100380000F920FB60F9211242F933F934F935F93C9
:100390006F937F938F939F93AF93BF93EF93FF934D
:1003A00089E291E00E94FE00FF91EF91BF91AF9131
:1003B0009F918F917F916F915F914F913F912F917D
:1003C0000F900FBE0F901F90189589E291E00E9448
:1003D000B30021E0892B09F420E0822F0895E9E29F
:1003E000F1E01382128288EE93E0A0E0B0E0848313
:1003F0009583A683B78385E091E09183808385EC24
:1004000090E09587848784EC90E09787868780ECDE
:1004100090E0918B808B81EC90E0938B828B82ECCF
:1004200090E0958B848B86EC90E0978B868B118E79
:10043000128E138E148E089590E080E00895AF928E
:10044000BF92CF92DF92EF92FF920F931F93CF93C1
:10045000DF936C017B018B01040F151FEB015E0123
:10046000AE18BF08C017D10759F06991D601ED91B8
:10047000FC910190F081E02DC6010995892B79F757
:10048000C501DF91CF911F910F91FF90EF90DF9009
:10049000CF90BF90AF900895813039F018F082303E
:1004A00051F0089510926E00089580916F008D7F35
:1004B00080936F000895809170008D7F809370000D
:1004C00081E08093B0008091B100887F8460809348
:1004D000B1001092B3000895CF93C82F809100010E
:1004E000C8130DC0E8E6F0E084919FEF90930001FF
:1004F0000E944C0260E08C2FCF910C9477048FEF18
:10050000F7CF1F920F920FB60F9211242F933F93A4
:100510004F935F936F937F938F939F93AF93BF930B
:10052000EF93FF938091C9019091CA01A091CB01F3
:10053000B091CC01892B8A2B8B2BD1F19091C601E4
:10054000E091C701F091C801808189278083809163
:10055000C9019091CA01A091CB01B091CC011816AC
:1005600019061A061B069CF48091C9019091CA01D4
:10057000A091CB01B091CC010197A109B109809361
:10058000C9019093CA01A093CB01B093CC01FF9114
:10059000EF91BF91AF919F918F917F916F915F91FB
:1005A0004F913F912F910F900FBE0F901F90189574
:1005B000809100010E946C02EACF4F925F926F928D
:1005C0007F92AF92BF92CF92DF92EF92FF920F9302
:1005D0001F93CF93DF93CDB7DEB729013A019B017B
:1005E000AC01241935094609570989899A89AB89CB
:1005F000BC89BC01CD016A197B098C099D090E9447
:10060000BF0BA801970124193509460957090E9413
:10061000FD0BCA01B9016A0D7B1D8C1D9D1DDF916B
:10062000CF911F910F91FF90EF90DF90CF90BF90EF
:10063000AF907F906F905F904F90089508950895C8
:100640000E94D7030E941F030E948B00C0EFD0E0DE
:100650000E9497002097E1F30E94F000F9CF1F92CB
:100660000F920FB60F9211242F933F938F939F9366
:10067000AF93BF938091CE019091CF01A091D00113
:10068000B091D1013091CD0123E0230F2D3758F5E2
:100690000196A11DB11D2093CD018093CE019093B1
:1006A000CF01A093D001B093D1018091D20190915C
:1006B000D301A091D401B091D5010196A11DB11D26
:1006C0008093D2019093D301A093D401B093D5012C
:1006D000BF91AF919F918F913F912F910F900FBE3E
:1006E0000F901F90189526E8230F0296A11DB11DAB
:1006F000D2CF3FB7F8948091D2019091D301A091CD
:10070000D401B091D50126B5A89B05C02F3F19F0A3
:100710000196A11DB11D3FBFBA2FA92F982F882781
:10072000BC01CD01620F711D811D911D42E0660F5C
:10073000771F881F991F4A95D1F708958F929F922E
:10074000AF92BF92CF92DF92EF92FF926B017C014A
:100750000E9479034B015C01C114D104E104F1044E
:10076000E9F00E941E030E947903681979098A0939
:100770009B09683E73408105910570F321E0C21A20
:10078000D108E108F10888EE880E83E0981EA11CCC
:10079000B11CC114D104E104F10429F7FF90EF90DA
:1007A000DF90CF90BF90AF909F908F9008957894F6
:1007B00084B5826084BD84B5816084BD85B5826066
:1007C00085BD85B5816085BDEEE6F0E08081816004
:1007D0008083E1E8F0E01082808182608083808104
:1007E00081608083E0E8F0E0808181608083E1EBDC
:1007F000F0E0808184608083E0EBF0E080818160C4
:100800008083EAE7F0E08081846080838081826079
:100810008083808181608083808180688083109262
:10082000C1000895833081F028F4813099F082303E
:10083000A9F008958730A9F08830C9F08430B1F468
:10084000809180008F7D03C0809180008F7780939E
:100850008000089584B58F7784BD089584B58F7D19
:10086000FBCF8091B0008F778093B0000895809186
:10087000B0008F7DF9CFCF93DF9390E0FC01E35878
:10088000FF4F24918F569F4FFC0184918823C9F01C
:1008900090E0880F991FFC01E155FF4FA591B4919D
:1008A000FC01EB55FF4FC591D49161110DC09FB76D
:1008B000F8948C91209582238C9388812823288317
:1008C0009FBFDF91CF910895623051F49FB7F894A4
:1008D0003C91822F809583238C93E8812E2BEFCF40
:1008E0008FB7F894EC912E2B2C938FBFEACF1F93E8
:1008F000CF93DF93282F30E0F901E759FF4F849120
:10090000F901E358FF4FD491F901EF56FF4FC4911D
:10091000CC23A9F0162F81110E941204EC2FF0E0D5
:10092000EE0FFF1FEB55FF4FA591B4918FB7F894D1
:10093000EC91111108C0D095DE23DC938FBFDF91BD
:10094000CF911F910895DE2BF8CF862FE091E6011D
:10095000F091E701309711F0BA0109940895862FBC
:10096000E091E401F091E501309711F0BA010994AA
:100970000895862FE091E201F091E301309711F0A4
:10098000BA0109940895862FE091E001F091E10108
:10099000309711F0BA0109940895862FE091DE0195
:1009A000F091DF01309711F0BA0109940895862F74
:1009B000E091DC01F091DD01309711F0BA0109946A
:1009C0000895CB01E091DA01F091DB01309709F055
:1009D00009940895862F642FE091D801F091D901F0
:1009E000309711F0A90109940895E091D601F09192
:1009F000D701309709F0099408950F931F93CF936F
:100A0000DF938C01805C9F4F0E944006E801CE5B23
:100A1000DF4F40E450E0B801CE010E94DD06F8014E
:100A2000E058FF4F1082319611821082FE9610829C
:100A300030E020E045EA54E060EECE010E941F075E
:100A400030E020E04FEA54E060E9CE010E941F0749
:100A500030E020E04DEC54E060ECCE010E941F0736
:100A600030E020E047ED54E060EDCE010E941F072A
:100A700030E020E049EB54E064EFCE010E941F0714
:100A800030E020E043EC54E065EFCE010E941F0708
:100A900030E020E041EE54E061E7CE010E946407BF
:100AA00030E020E04AEE54E060EFCE010E946C0797
:100AB000980147E955E069E7CE010E944C0798018B
:100AC00048E755E069EFCE010E94540730E020E08E
:100AD00045EF54E06FEFCE01DF91CF911F910F9161
:100AE0000C94540745E062E0805C9F4F0C94AB0689
:100AF000009711F00C94720508950F931F93FC0159
:100B0000E058FF4F2081222379F031960190F08147
:100B1000E02D8F010E5F1F4F2250330B418160810A
:100B2000805C9F4F0E9444061F910F91089500978B
:100B300011F00C947D05089588EE91E00C94FD046D
:100B40005F926F927F928F929F92AF92BF92CF925D
:100B5000DF92EF92FF920F931F93CF93DF935C018D
:100B60006901DA015C90232B19F4CC24CA94DC2CA3
:100B70008A013A01660E771ED0E0C0E0F12CE12C2C
:100B800087E0882E912C6016710609F443C0EC149E
:100B9000FD0408F065C0F80161918F01D5018D91C8
:100BA0009C910C2E01C0660F0A94EAF765296F77B5
:100BB000DC01ED91FC910190F081E02D0995BFEFF2
:100BC000EB1AFB0AF8013197608170E0C4018C1BBD
:100BD0009D0B02C0759567958A95E2F7562E219672
:100BE000C730D10580F2CE14DF0469F2F5018081AF
:100BF0009181652D6F77DC01ED91FC910190F08181
:100C0000E02D0995BFEFEB1AFB0A551C5524551C26
:100C10002797E6CF209721F1EC14FD0408F5F501A4
:100C20008081918161E070E001C0660FCA95EAF7AA
:100C300061506521DC01ED91FC910190F081E02D86
:100C4000DF91CF911F910F91FF90EF90DF90CF90A8
:100C5000BF90AF909F908F907F906F905F9009941E
:100C6000DF91CF911F910F91FF90EF90DF90CF9088
:100C7000BF90AF909F908F907F906F905F900895FE
:100C8000FC01118210820895CF92DF92EF92FF92C1
:100C90000F931F93CF93DF93FC01A081B181109735
:100CA00009F450C068018901F42EE62EEC01ED91A3
:100CB000FC9111970190F081E02D60EFCD01099535
:100CC00088819981DC01ED91FC910190F081E02D0A
:100CD00069E7099588819981DC01ED91FC9101908A
:100CE000F081E02D6E2D099588819981DC01ED91CF
:100CF000FC910190F081E02D6F2D099576010C0D8E
:100D00001D1DE016F10661F030E020E0A70161E072
:100D100070E0CE010E94A005BFEFEB1AFB0AF1CFF5
:100D200088819981DC01ED91FC910190F081E02DA9
:100D300067EFDF91CF911F910F91FF90EF90DF90C0
:100D4000CF900994DF91CF911F910F91FF90EF9079
:100D5000DF90CF9008950F931F93CF93DF93FC0103
:100D6000A081B181109721F1042F162FEC01ED9194
:100D7000FC9111970190F081E02D69EFCD0109956B
:100D800088819981DC01ED91FC910190F081E02D49
:100D9000612F099588819981DC01ED91FC91019089
:100DA000F081E02D602FDF91CF911F910F91099479
:100DB000DF91CF911F910F910895FC0172836183A0
:100DC00054834383158216821086178211861386F8
:100DD00012861586148617861686118A108A138A3B
:100DE000128A158A148A178A168A118E108E138E0B
:100DF000128E158E148E178E168E11A210A213A2AB
:100E000012A215A214A217A216A211A610A613A62A
:100E100012A615A614A617A616A611AA10AA13AAFA
:100E200012AA15AA14AA17AA16AA11AE10AE13AECA
:100E300012AE81E0672B09F080E080830895FC0109
:100E4000603DD9F028F4603971F0603C89F0089574
:100E5000643FC1F0653FD9F0603EE9F455A344A377
:100E600035872487089557A346A337872687089593
:100E700051A740A7318B208B089553A742A7338BEE
:100E8000228B089555A744A7358B248B089557A727
:100E900046A7378B268B0895693729F4FC0157AB99
:100EA00046AB318F208F0895FC01693F19F06F3FE9
:100EB00031F0089551AF40AF338F228F089553AF73
:100EC00042AF33A322A30895613729F4FC0153AB49
:100ED00042AB378F268F0895FC0155AB44AB31A34D
:100EE00020A308951F920F920FB60F9211242F93F3
:100EF0003F934F935F936F937F938F939F93AF93A2
:100F0000BF93EF93FF938091A90287FF27C01092B0
:100F10008500109284008091A9028F5F8093A902BE
:100F20008091A902082E000C990B2091A802281785
:100F3000190629F024F08091A9028C30DCF180910F
:100F4000840090918500049680349C4908F47BC00D
:100F50008091840090918500049677C08091A902C9
:100F6000082E000C990B2091A8022817190699F257
:100F700094F2E091A9028E2FEE0F990BFC01EE0F77
:100F8000FF1FE80FF91FE655FD4F808186FFC3CF95
:100F9000E091A9028E2FEE0F990BFC01EE0FFF1FBF
:100FA000E80FF91FE655FD4F808160E08F730E94C6
:100FB0007704B1CF2091840030918500E091A9029F
:100FC0008E2FEE0F990BFC01EE0FFF1FE80FF91F9C
:100FD000E655FD4F81819281820F931F9093890086
:100FE00080938800E091A9028E2FEE0F990BFC01EF
:100FF000EE0FFF1FE80FF91FE655FD4F808186FFBA
:1010000011C0E091A9028E2FEE0F990BFC01EE0F9B
:10101000FF1FE80FF91FE655FD4F808161E08F73D8
:101020000E947704FF91EF91BF91AF919F918F91B3
:101030007F916F915F914F913F912F910F900FBED4
:101040000F901F90189580E49CE9909389008093FD
:1010500088008FEF8093A902E5CFFC019091A80250
:101060009C3098F481E0890F8093A8029083892FA7
:1010700090E0FC01EE0FFF1FE80FF91FE655FD4F52
:1010800088EB9BE09283818308958FEF808308959E
:10109000DF92EF92FF920F931F93CF93DF93EC01B8
:1010A000D62E7A01890188818C3008F067C061E012
:1010B0008D2D0E943B048881282F30E0F901EE0F2E
:1010C000FF1FE20FF31FE655FD4F9D2D9F736081BB
:1010D000607C692B608320E232E02E193F0937FFE4
:1010E00002C02D5F3F4F359527953595279529836C
:1010F00020E639E0201B310B37FF02C02D5F3F4F48
:1011000035952795359527952A832CE0622F0E94E7
:10111000CF0B829FB001112430E020E0AB01420FE1
:10112000531FFA01EE0FFF1FE40FF51FE655FD4FA9
:10113000908196FD16C02F5F3F4F2C30310571F71F
:1011400081110FC01092800082E080938100109284
:10115000850010928400B19A80916F008260809324
:101160006F00E8818E2F90E0FC01EE0FFF1FE80F6B
:10117000F91FE655FD4F8081806480838881DF916F
:10118000CF911F910F91FF90EF90DF90089520E68F
:1011900039E040E252E00C944808DC01EC91EC307C
:1011A00090F511968C91119728E830E0281B3109B1
:1011B00087FD3395220F331F220F331F62177307EA
:1011C00084F012968C9128E532E0281B310987FDC6
:1011D0003395220F331F220F331F621773070CF44E
:1011E0009B0122503109220F331F4FB7F8948E2FE5
:1011F00090E0FC01EE0FFF1FE80FF91FE655FD4FD1
:10120000328321834FBF0895AF92BF92CF92DF9276
:10121000EF92FF920F931F93CF93DF93EC01603215
:1012200082E078070CF03EC0653B710514F064EB7A
:1012300070E0898148E8A42EB12CA81AB10887FD76
:10124000B394AA0CBB1CAA0CBB1C0B2C000CCC0826
:10125000DD0877FF02C070E060E0072E000C880B0D
:10126000990B2A8108E512E0021B110927FD13954D
:10127000000F111F000F111F012E000C220B330B4A
:101280003F932F931F930F9314EBE12EF12C00E06B
:1012900010E020E030E0A9010E94DD020F900F90E5
:1012A0000F900F90CE01DF91CF911F910F91FF9082
:1012B000EF90DF90CF90BF90AF900C94CD088091CD
:1012C000FD029091FE02891B990B08959091FE02F8
:1012D0008091FD022FEF3FEF981748F4E92FF0E0DF
:1012E000E150FD4F208130E09F5F9093FE02C901E5
:1012F0000895E091FE028091FD02E81730F4F0E0DD
:10130000E150FD4F808190E008958FEF9FEF0895A9
:101310000895CF93DF931F92CDB7DEB769832091F5
:10132000DA022223F9F02091DB02203258F021E08A
:1013300030E0FC013383228390E080E00F90DF9166
:10134000CF9108958091DC02E82FF0E0E352FD4F49
:10135000998190838F5F8093DC028093DB0281E030
:1013600090E0ECCF61E0CE0101960E94210AF7CF18
:10137000CF92DF92EF92FF920F931F93CF93DF9361
:101380007C01CB018A012091DA02222389F0EB0152
:101390006B01C40ED51ECC15DD0569F06991D7012E
:1013A000ED91FC910190F081E02DC7010995F3CFFB
:1013B000642F0E94210AC801DF91CF911F910F91E4
:1013C000FF90EF90DF90CF900895EEECF2E0138263
:1013D000128288EE93E0A0E0B0E084839583A68338
:1013E000B78387E191E091838083089510929203FF
:1013F00081E08093900310928F0361E082E10E946C
:10140000770461E083E10E947704E9EBF0E08081FA
:101410008E7F808380818D7F808388E48093B80075
:1014200085E48093BC000895ECEBF0E080818A7B3A
:10143000808360E082E10E94770460E083E10C94A5
:10144000770420914103260F3327331F21323105C2
:10145000ECF420919203FC0190E080E0243069F0EC
:1014600082E00895A09141032191AC014D5B5C4F56
:10147000A40FB52FB11D2C930196861798F3809178
:101480004103680F6093410380E0089581E008956F
:1014900085EC8093BC00109292030895CF93DF9364
:1014A00091E090938A03882361F0C091B800D091B5
:1014B000BA000E94140A0E94F609D093BA00C093A1
:1014C000B800DF91CF91089585ED8093BC008091A5
:1014D0008B0390918C03A0918D03B0918E0307969E
:1014E000A11DB11D23E0B695A795979587952A95DF
:1014F000D1F72091BC0024FD03C0109292030895FF
:1015000040918B0350918C0360918D0370918E03F9
:10151000452B462B472B69F30097A105B10541F0F8
:101520002AE22A95F1F700C00197A109B109E1CF9C
:10153000809189030C944E0A1F920F920FB60F925E
:1015400011242F933F934F935F936F937F938F93C8
:101550009F93AF93BF93EF93FF938091B900887FE0
:10156000803609F44CC008F03FC0883209F4A8C0A6
:1015700018F5803109F49CC0B8F4882309F4F9C047
:10158000883009F495C0FF91EF91BF91AF919F9181
:101590008F917F916F915F914F913F912F910F901C
:1015A0000FBE0F901F901895883109F489C08032C2
:1015B00051F780931F0315C0803409F49EC048F48E
:1015C0008033B9F38833F9F680931F030E94480AE9
:1015D000DACF803509F485C0883509F496C088349F
:1015E00091F60E94640ACFCF883909F48CC038F58F
:1015F000883729F050F4883611F0803721F683E0DF
:10160000809392031092200357C0883809F47BC05E
:10161000803919F0803809F0B6CF809120038032EC
:1016200008F071C0E091200381E08E0F80932003C9
:101630008091BB00F0E0EF5DFC4F80833DC0803BBC
:1016400039F0E0F4803A09F479C0883A09F09BCF88
:1016500084E0809392031092420310924103E09140
:101660008703F091880309958091410381110FC090
:1016700081E0809341031092430309C0803C09F448
:1016800076C0883C09F473C0883B09F07CCFE091B8
:10169000420381E08E0F80934203F0E0ED5BFC4F4C
:1016A00080818093BB00909142038091410329C0C7
:1016B000809191038093BB0085EC8093BC0063CF45
:1016C0009091640380916303981758F5E091640347
:1016D00081E08E0F80936403F0E0EB59FC4F808132
:1016E000E9CFE091640381E08E0F809364038091E1
:1016F000BB00F0E0EB59FC4F808390916403809134
:1017000063039817C8F285E8D8CFE091640381E0BD
:101710008E0F809364038091BB00F0E0EB59FC4F87
:1017200080838091900381115CCF81E080938F034F
:1017300084EA8093BC001092920325CF0E94480A4D
:1017400080912003803230F4E0912003F0E0EF5DDF
:10175000FC4F10826091200370E0E0918503F091CE
:10176000860381E293E00995109220030CCF85EC6B
:10177000E0CF10921F0335CFF8940C943C0CDB01A2
:101780008F939F930E941C0CBF91AF91A29F800DDD
:10179000911DA39F900DB29F900D11240895991B48
:1017A00079E004C0991F961708F0961B881F7A9558
:1017B000C9F780950895A1E21A2EAA1BBB1BFD0153
:1017C0000DC0AA1FBB1FEE1FFF1FA217B307E40720
:1017D000F50720F0A21BB30BE40BF50B661F771F78
:1017E000881F991F1A9469F7609570958095909558
:1017F0009B01AC01BD01CF010895052E97FB1EF49E
:1018000000940E94140C57FD07D00E94DB0B07FCCC
:1018100003D04EF40C94140C5095409530952195BE
:101820003F4F4F4F5F4F089590958095709561950C
:101830007F4F8F4F9F4F08950E942D0CA59F900DB5
:10184000B49F900DA49F800D911D11240895EE0F5B
:10185000FF1F0590F491E02D0994A29FB001B39F62
:10186000C001A39F700D811D1124911DB29F700DA9
:0C187000811D1124911D0895F894FFCFF4
:10187C00FF0000000040011F02E1002001B300CD79
:10188C0000BF00000000008909B8091C0288095F2C
:06189C000966097909004C
:00000001FF
