:100000000C945B000C9483000C9483000C9483008C
:100010000C9483000C9483000C9483000C94FE02D7
:100020000C9483000C9483000C9483000C941307AD
:100030000C9483000C9483000C9483000C94830034
:100040000C946A030C9483000C94E0010C9412024B
:100050000C9483000C9483000C9483000C94830014
:100060000C940B090C9483000200000008000201AC
:10007000000003040700000000000000000102046B
:10008000081020408001020408102001020408101A
:100090002004040404040404040202020202020311
:1000A000030303030300000000250028002B0000C9
:1000B00042023D05540811241FBECFEFD8E0DEBF39
:1000C000CDBF11E0A0E0B1E0E0EBF4E102C00590AB
:1000D0000D92A433B107D9F723E0A4E3B1E001C046
:1000E0001D92AE39B207E1F710E0CBE5D0E004C0D5
:1000F0002197FE010E94500AC835D107C9F70E9416
:100100005B030C942B0A0C94000026E040E855E2B7
:1001100060E070E084E391E00E947E0161E071E0C4
:1001200084E391E00C94B20284E391E00E94A40085
:10013000892B49F084E391E00E94BE00682F84E39C
:1001400091E00C9431010895FC01918D228D892F4D
:1001500090E0805C9F4F821B91098F7399270895CF
:10016000FC01918D828D981731F0828DE80FF11D81
:10017000858D90E008958FEF9FEF0895FC01918D9C
:10018000828D981761F0A28DAE0FBF2FB11D5D96C5
:100190008C91928D9F5F9F73928F90E008958FEF67
:1001A0009FEF0895FC01538D448D252F30E0842F5F
:1001B00090E0821B930B541710F0CF96089501978F
:1001C000089588E392E0892B49F080E090E0892B44
:1001D00029F00E94380281110C9400000895FC015E
:1001E000A48DA80FB92FB11DA35ABF4F2C91848D98
:1001F00090E001968F739927848FA689B7892C93F5
:10020000A089B1898C91837080648C93938D848D47
:10021000981306C00288F389E02D80818F7D80834A
:100220000895CF93DF93EC01888D8823B9F0AA89D4
:10023000BB89E889F9898C9185FD03C0808186FDA1
:100240000DC00FB607FCF7CF8C9185FFF2CF8081F0
:1002500085FFEDCFCE010E94EF00E9CFDF91CF9176
:100260000895EF92FF920F931F93CF93DF93EC01CA
:1002700081E0888F9B8D8C8D98131AC0E889F9894D
:10028000808185FF15C09FB7F894EE89FF89608350
:10029000E889F98980818370806480839FBF81E0D1
:1002A00090E0DF91CF911F910F91FF90EF90089513
:1002B000F62E0B8D10E00F5F1F4F0F731127E02EEE
:1002C0008C8D8E110CC00FB607FCFACFE889F98926
:1002D000808185FFF5CFCE010E94EF00F1CFEB8D3D
:1002E000EC0FFD2FF11DE35AFF4FF0829FB7F894FA
:1002F0000B8FEA89FB8980818062CFCFCF92DF921A
:10030000EF92FF921F93CF93DF93EC016A017B0181
:10031000122FE889F98982E08083C11481EED80622
:10032000E104F104A1F060E079E08DE390E0A70141
:1003300096010E942E0A2150310941095109569512
:10034000479537952795211580E1380798F0E8897A
:10035000F989108260E874E88EE190E0A7019601C7
:100360000E942E0A2150310941095109569547959D
:1003700037952795EC85FD853083EE85FF852083B5
:10038000188EEC89FD891083EA89FB898081806160
:100390008083EA89FB89808188608083EA89FB8980
:1003A000808180688083EA89FB8980818F7D80835A
:1003B000DF91CF911F91FF90EF90DF90CF90089544
:1003C0001F920F920FB60F9211242F938F939F932A
:1003D000EF93FF93E0914401F09145018081E0911A
:1003E0004A01F0914B0182FD1BC0908180914D012B
:1003F0008F5F8F7320914E01821741F0E0914D0184
:10040000F0E0EC5CFE4F958F80934D01FF91EF91F2
:100410009F918F912F910F900FBE0F901F90189565
:100420008081F4CF1F920F920FB60F9211242F9359
:100430003F934F935F936F937F938F939F93AF936C
:10044000BF93EF93FF9384E391E00E94EF00FF914D
:10045000EF91BF91AF919F918F917F916F915F913C
:100460004F913F912F910F900FBE0F901F901895B5
:1004700084E391E00E94A40021E0892B09F420E0AC
:10048000822F0895E4E3F1E01382128288EE93E074
:10049000A0E0B0E084839583A683B78383E191E0F5
:1004A0009183808385EC90E09587848784EC90E04D
:1004B0009787868780EC90E0918B808B81EC90E031
:1004C000938B828B82EC90E0958B848B86EC90E012
:1004D000978B868B118E128E138E148E089590E05A
:1004E00080E00895AF92BF92CF92DF92EF92FF9299
:1004F0000F931F93CF93DF936C017B018B01040F4C
:10050000151FEB015E01AE18BF08C017D10759F0E7
:100510006991D601ED91FC910190F081E02DC60129
:100520000995892B79F7C501DF91CF911F910F9123
:10053000FF90EF90DF90CF90BF90AF900895FB01B8
:1005400001900020E9F73197AF01461B570BDC0102
:10055000ED91FC910280F381E02D09946CE071E053
:100560000C949F020F931F93CF93DF938C01D0E0E5
:10057000C0E06115710519F00E949F02EC01C801ED
:100580000E94AE028C0F9D1FDF91CF911F910F91A2
:100590000895813039F018F0823051F008951092AA
:1005A0006E00089580916F008D7F80936F00089595
:1005B000809170008D7F8093700081E08093B00007
:1005C0008091B100887F84608093B1001092B30065
:1005D0000895CF93C82F80910001C8130DC0E8E69D
:1005E000F0E084919FEF909300010E94C90260E0C7
:1005F0008C2FCF910C9418048FEFF7CF1F920F928E
:100600000FB60F9211242F933F934F935F936F93E5
:100610007F938F939F93AF93BF93EF93FF938091BB
:10062000D4019091D501A091D601B091D701892B29
:100630008A2B8B2BD1F19091D101E091D201F091D5
:10064000D3018081892780838091D4019091D50145
:10065000A091D601B091D701181619061A061B06EB
:100660009CF48091D4019091D501A091D601B091D4
:10067000D7010197A109B1098093D4019093D501C5
:10068000A093D601B093D701FF91EF91BF91AF91A5
:100690009F918F917F916F915F914F913F912F919A
:1006A0000F900FBE0F901F901895809100010E942F
:1006B000E902EACF08950E94B4030E945A030E94FF
:1006C0008500C1EED0E00E9494002097E1F30E94E3
:1006D000E100F9CF1F920F920FB60F9211242F93C2
:1006E0003F938F939F93AF93BF938091D901909144
:1006F000DA01A091DB01B091DC013091D80123E057
:10070000230F2D3758F50196A11DB11D2093D80157
:100710008093D9019093DA01A093DB01B093DC01BF
:100720008091DD019091DE01A091DF01B091E001A7
:100730000196A11DB11D8093DD019093DE01A09370
:10074000DF01B093E001BF91AF919F918F913F91F5
:100750002F910F900FBE0F901F90189526E8230F32
:100760000296A11DB11DD2CF789484B5826084BD5C
:1007700084B5816084BD85B5826085BD85B58160A5
:1007800085BDEEE6F0E0808181608083E1E8F0E005
:100790001082808182608083808181608083E0E834
:1007A000F0E0808181608083E1EBF0E08081846013
:1007B0008083E0EBF0E0808181608083EAE7F0E015
:1007C0008081846080838081826080838081816079
:1007D00080838081806880831092C1000895833077
:1007E00081F028F4813099F08230A9F008958730A3
:1007F000A9F08830C9F08430B1F4809180008F7DF9
:1008000003C0809180008F7780938000089584B525
:100810008F7784BD089584B58F7DFBCF8091B00024
:100820008F778093B00008958091B0008F7DF9CFCD
:100830001F93CF93DF93282F30E0F901E759FF4F43
:100840008491F901E358FF4FD491F901EF56FF4F1E
:10085000C491CC23A9F0162F81110E94EF03EC2F35
:10086000F0E0EE0FFF1FEB55FF4FA591B4918FB74E
:10087000F894EC91111108C0D095DE23DC938FBF62
:10088000DF91CF911F910895DE2BF8CF862FE09155
:10089000F101F091F201309711F0BA010994089535
:1008A000862FE091EF01F091F001309711F0BA013D
:1008B00009940895862FE091ED01F091EE013097B3
:1008C00011F0BA0109940895862FE091EB01F0919F
:1008D000EC01309711F0BA0109940895862FE09148
:1008E000E901F091EA01309711F0BA0109940895F5
:1008F000862FE091E701F091E801309711F0BA01FD
:1009000009940895CB01E091E501F091E60130975B
:1009100009F009940895862F642FE091E301F09186
:10092000E401309711F0A90109940895E091E101E3
:10093000F091E201309709F0099408950F931F9305
:10094000CF93DF938C01805C9F4F0E94E105E8010B
:10095000CE5BDF4F40E450E0B801CE010E947E063E
:10096000F801E058FF4F1082319611821082FE96F6
:10097000108230E020E046E454E060EECE010E94B8
:10098000C00630E020E040E554E060E9CE010E947E
:10099000C00630E020E04EE654E060ECCE010E945C
:1009A000C00630E020E048E754E060EDCE010E9450
:1009B000C00630E020E04AE554E064EFCE010E943A
:1009C000C00630E020E044E654E065EFCE010E942E
:1009D000C00630E020E042E854E061E7CE010E942A
:1009E000050730E020E04BE854E060EFCE010E94C4
:1009F0000D07980148E355E069E7CE010E94ED0636
:100A0000980149E155E069EFCE010E94F50630E01A
:100A100020E046E954E06FEFCE01DF91CF911F91C6
:100A20000F910C94F50645E062E0805C9F4F0C94BA
:100A30004C06009711F00C94130508950F931F9323
:100A4000FC01E058FF4F2081222379F0319601907C
:100A5000F081E02D8F010E5F1F4F2250330B41813B
:100A60006081805C9F4F0E94E5051F910F91089562
:100A7000009711F00C941E05089583EF91E00C94FB
:100A80009E045F926F927F928F929F92AF92BF92DD
:100A9000CF92DF92EF92FF920F931F93CF93DF934A
:100AA0005C016901DA015C90232B19F4CC24CA940F
:100AB000DC2C8A013A01660E771ED0E0C0E0F12CF2
:100AC000E12C87E0882E912C6016710609F443C052
:100AD000EC14FD0408F065C0F80161918F01D501A7
:100AE0008D919C910C2E01C0660F0A94EAF765293E
:100AF0006F77DC01ED91FC910190F081E02D09957B
:100B0000BFEFEB1AFB0AF8013197608170E0C40176
:100B10008C1B9D0B02C0759567958A95E2F7562E42
:100B20002196C730D10580F2CE14DF0469F2F501B9
:100B300080819181652D6F77DC01ED91FC910190B1
:100B4000F081E02D0995BFEFEB1AFB0A551C5524E7
:100B5000551C2797E6CF209721F1EC14FD0408F5EA
:100B6000F5018081918161E070E001C0660FCA9556
:100B7000EAF761506521DC01ED91FC910190F08173
:100B8000E02DDF91CF911F910F91FF90EF90DF90BB
:100B9000CF90BF90AF909F908F907F906F905F901D
:100BA0000994DF91CF911F910F91FF90EF90DF900B
:100BB000CF90BF90AF909F908F907F906F905F90FD
:100BC0000895FC01118210820895CF92DF92EF9276
:100BD000FF920F931F93CF93DF93FC01A081B1810C
:100BE000109709F450C068018901F42EE62EEC013B
:100BF000ED91FC9111970190F081E02D60EFCD0116
:100C0000099588819981DC01ED91FC910190F08139
:100C1000E02D69E7099588819981DC01ED91FC91CE
:100C20000190F081E02D6E2D099588819981DC017C
:100C3000ED91FC910190F081E02D6F2D09957601E9
:100C40000C0D1D1DE016F10661F030E020E0A7015B
:100C500061E070E0CE010E944105BFEFEB1AFB0A94
:100C6000F1CF88819981DC01ED91FC910190F081B7
:100C7000E02D67EFDF91CF911F910F91FF90EF90E3
:100C8000DF90CF900994DF91CF911F910F91FF904A
:100C9000EF90DF90CF9008950F931F93CF93DF9342
:100CA000FC01A081B181109721F1042F162FEC01D6
:100CB000ED91FC9111970190F081E02D69EFCD014C
:100CC000099588819981DC01ED91FC910190F08179
:100CD000E02D612F099588819981DC01ED91FC91CE
:100CE0000190F081E02D602FDF91CF911F910F9146
:100CF0000994DF91CF911F910F910895FC017283A8
:100D0000618354834383158216821086178211866D
:100D1000138612861586148617861686118A108AFF
:100D2000138A128A158A148A178A168A118E108ECF
:100D3000138E128E158E148E178E168E11A210A27F
:100D400013A212A215A214A217A216A211A610A6EF
:100D500013A612A615A614A617A616A611AA10AABF
:100D600013AA12AA15AA14AA17AA16AA11AE10AE8F
:100D700013AE12AE81E0672B09F080E08083089506
:100D8000FC01603DD9F028F4603971F0603C89F0D5
:100D90000895643FC1F0653FD9F0603EE9F455A382
:100DA00044A335872487089557A346A3378726870A
:100DB000089551A740A7318B208B089553A742A7D0
:100DC000338B228B089555A744A7358B248B089528
:100DD00057A746A7378B268B0895693729F4FC015E
:100DE00057AB46AB318F208F0895FC01693F19F056
:100DF0006F3F31F0089551AF40AF338F228F089588
:100E000053AF42AF33A322A30895613729F4FC0105
:100E100053AB42AB378F268F0895FC0155AB44ABE3
:100E200031A320A308951F920F920FB60F921124A1
:100E30002F933F934F935F936F937F938F939F93E2
:100E4000AF93BF93EF93FF938091B40287FF27C0C6
:100E500010928500109284008091B4028F5F80937D
:100E6000B4028091B402082E000C990B2091B302B9
:100E70002817190629F024F08091B4028C30DCF197
:100E80008091840090918500049680349C4908F4F8
:100E90007BC08091840090918500049677C08091FA
:100EA000B402082E000C990B2091B30228171906E2
:100EB00099F294F2E091B4028E2FEE0F990BFC019F
:100EC000EE0FFF1FE80FF91FEB54FD4F808186FFE7
:100ED000C3CFE091B4028E2FEE0F990BFC01EE0F01
:100EE000FF1FE80FF91FEB54FD4F808160E08F7307
:100EF0000E941804B1CF2091840030918500E091C8
:100F0000B4028E2FEE0F990BFC01EE0FFF1FE80FBE
:100F1000F91FEB54FD4F81819281820F931F9093B3
:100F2000890080938800E091B4028E2FEE0F990B18
:100F3000FC01EE0FFF1FE80FF91FEB54FD4F8081FE
:100F400086FF11C0E091B4028E2FEE0F990BFC01C9
:100F5000EE0FFF1FE80FF91FEB54FD4F808161E09A
:100F60008F730E941804FF91EF91BF91AF919F91F1
:100F70008F917F916F915F914F913F912F910F9042
:100F80000FBE0F901F90189580E49CE99093890004
:100F9000809388008FEF8093B402E5CF809108039F
:100FA00090910903891B990B0895909109038091F1
:100FB00008032FEF3FEF981748F4E92FF0E0E65FC2
:100FC000FC4F208130E09F5F90930903C901089591
:100FD000E091090380910803E81730F4F0E0E65F40
:100FE000FC4F808190E008958FEF9FEF0895089562
:100FF000CF93DF931F92CDB7DEB769832091E502CF
:101000002223F9F02091E602203258F021E030E06E
:10101000FC013383228390E080E00F90DF91CF9139
:1010200008958091E702E82FF0E0E851FD4F9981A3
:1010300090838F5F8093E7028093E60281E090E0E7
:10104000ECCF61E0CE0101960E949008F7CFCF92DD
:10105000DF92EF92FF920F931F93CF93DF937C0168
:10106000CB018A012091E502222389F0EB016B017B
:10107000C40ED51ECC15DD0569F06991D701ED913F
:10108000FC910190F081E02DC7010995F3CF642F09
:101090000E949008C801DF91CF911F910F91FF909E
:1010A000EF90DF90CF900895E9EDF2E01382128285
:1010B00088EE93E0A0E0B0E084839583A683B783B5
:1010C00085E291E091838083089510929D0381E0F1
:1010D00080939B0310929A0361E082E10E941804BE
:1010E00061E083E10E941804E9EBF0E080818E7FEB
:1010F000808380818D7F808388E48093B80085E43D
:101100008093BC000895ECEBF0E080818A7B8083C3
:1011100060E082E10E94180460E083E10C9418040E
:1011200020914C03260F3327331F21323105ECF475
:1011300020919D03FC0190E080E0243069F082E082
:101140000895A0914C032191AC01425B5C4FA40F28
:10115000B52FB11D2C930196861798F380914C03FF
:10116000680F60934C0380E0089581E0089585EC5A
:101170008093BC0010929D030895CF93DF9391E07C
:1011800090939503882361F0C091B800D091BA0084
:101190000E9483080E946508D093BA00C093B800EB
:1011A000DF91CF91089585ED8093BC0080919603E7
:1011B00090919703A0919803B09199030796A11D70
:1011C000B11D23E0B695A795979587952A95D1F7F8
:1011D0002091BC0024FD03C010929D03089540910E
:1011E0009603509197036091980370919903452B52
:1011F000462B472B69F30097A105B10541F02AE280
:101200002A95F1F700C00197A109B109E1CF8091BA
:1012100094030C94BD081F920F920FB60F921124E5
:101220002F933F934F935F936F937F938F939F93EE
:10123000AF93BF93EF93FF938091B900887F80367F
:1012400009F44CC008F03FC0883209F4A8C018F572
:10125000803109F49CC0B8F4882309F4F9C08830BF
:1012600009F495C0FF91EF91BF91AF919F918F913C
:101270007F916F915F914F913F912F910F900FBE92
:101280000F901F901895883109F489C0803251F76A
:1012900080932A0315C0803409F49EC048F480333B
:1012A000B9F38833F9F680932A030E94B708DACF9E
:1012B000803509F485C0883509F496C0883491F6E4
:1012C0000E94D308CFCF883909F48CC038F588370D
:1012D00029F050F4883611F0803721F683E08093AE
:1012E0009D0310922B0357C0883809F47BC08039C6
:1012F00019F0803809F0B6CF80912B03803208F0C6
:1013000071C0E0912B0381E08E0F80932B038091BD
:10131000BB00F0E0E45DFC4F80833DC0803B39F0D2
:10132000E0F4803A09F479C0883A09F09BCF84E070
:1013300080939D0310924D0310924C03E091920311
:10134000F0919303099580914C0381110FC081E0C6
:1013500080934C0310924E0309C0803C09F476C080
:10136000883C09F473C0883B09F07CCFE0914D03C1
:1013700081E08E0F80934D03F0E0E25BFC4F8081B3
:101380008093BB0090914D0380914C0329C08091C4
:101390009C038093BB0085EC8093BC0063CF90914D
:1013A0006F0380916E03981758F5E0916F0381E009
:1013B0008E0F80936F03F0E0E059FC4F8081E9CFFE
:1013C000E0916F0381E08E0F80936F038091BB00EB
:1013D000F0E0E059FC4F808390916F0380916E03A1
:1013E0009817C8F285E8D8CFE0916F0381E08E0F9F
:1013F00080936F038091BB00F0E0E059FC4F808345
:1014000080919B0381115CCF81E080939A0384EAF1
:101410008093BC0010929D0325CF0E94B708809155
:101420002B03803230F4E0912B03F0E0E45DFC4FBD
:10143000108260912B0370E0E0919003F091910392
:101440008CE293E0099510922B030CCF85ECE0CF52
:1014500010922A0335CFF8940C94560AA1E21A2E62
:10146000AA1BBB1BFD010DC0AA1FBB1FEE1FFF1F48
:10147000A217B307E407F50720F0A21BB30BE40B98
:10148000F50B661F771F881F991F1A9469F76095DF
:101490007095809590959B01AC01BD01CF01089599
:1014A000EE0FFF1F0590F491E02D0994F894FFCF03
:1014B000FF48656C6C6F2047554249000D0A0000DB
:1014C00000000031017202D2001101A400BE00B080
:1014D0000000000000F80727086F02F707CE07D5C5
:0414E00007E8070012
:00000001FF
